{
  "abi": [
    {
      "inputs": [],
      "name": "TransferFailed",
      "type": "error"
    },
    {
      "inputs": [
        {
          "internalType": "address",
          "name": "",
          "type": "address"
        }
      ],
      "name": "s_balances",
      "outputs": [
        {
          "internalType": "uint256",
          "name": "",
          "type": "uint256"
        }
      ],
      "stateMutability": "view",
      "type": "function"
    },
    {
      "inputs": [
        {
          "internalType": "uint256",
          "name": "amount",
          "type": "uint256"
        },
        {
          "internalType": "address",
          "name": "token",
          "type": "address"
        }
      ],
      "name": "stake",
      "outputs": [
        {
          "internalType": "bool",
          "name": "",
          "type": "bool"
        }
      ],
      "stateMutability": "nonpayable",
      "type": "function"
    }
  ],
  "bytecode": {
    "object": "0x608060405234801561001057600080fd5b50610210806100206000396000f3fe608060405234801561001057600080fd5b50600436106100365760003560e01c80637acb77571461003b578063ab32eb6914610063575b600080fd5b61004e610049366004610174565b610091565b60405190151581526020015b60405180910390f35b6100836100713660046101a0565b60006020819052908152604090205481565b60405190815260200161005a565b336000908152602081905260408120805484919083906100b29084906101bb565b90915550506040516323b872dd60e01b8152336004820152306024820152604481018490526000906001600160a01b038416906323b872dd906064016020604051808303816000875af115801561010d573d6000803e3d6000fd5b505050506040513d601f19601f8201168201806040525081019061013191906101e1565b905080610151576040516312171d8360e31b815260040160405180910390fd5b9392505050565b80356001600160a01b038116811461016f57600080fd5b919050565b6000806040838503121561018757600080fd5b8235915061019760208401610158565b90509250929050565b6000602082840312156101b257600080fd5b61015182610158565b600082198211156101dc57634e487b7160e01b600052601160045260246000fd5b500190565b6000602082840312156101f357600080fd5b8151801515811461015157600080fdfea164736f6c634300080a000a",
    "linkReferences": {}
  }
}